:20C000003B408000013C0B430A1209120812071221833FB0807F7B243DB0807F05200C4E94
:20C020000D4F8B100DEB733C0D5D084D4D1038F000FF0DD80F5F084F4F1038F000FF0FD808
:20C04000094C0A4D3DF08000C14D00000BEA0BEF3BC07FFF3AD080003FD080000A9F02202D
:20C06000099E0A240B2C0D4F0F4A0A4D0C4E0E49094C81EB0000023C0B934F200C43084A4A
:20C08000881047488F10488F8F100E2438901900342C12C34F100E100C103CB00010022461
:20C0A0003CD000201883F5230B930C24088C097E4A7F0C484A9312300C5C09694A6A178354
:20C0C0002C24F83F095E4A6F09284A1009100C103CB0001002243CD0002017533CB00080D5
:20C0E000072409634A6307633CB00060012019C3179313383790FF0013347AC080008710F6
:20C10000D1510000000007100AD70C490D4A21533741384139413A4130410D430C43F73FB9
:20C120003D40FFFED161000000000D103C43EF3F0A12091208120712074F07ED0A4F0A5A18
:20C140008A104A4A0A934C247FD080000B4D0B5B8B104B4B0B933F247DD080000B5A3B80F8
:20C160007F00084309430E9309241A430E100228085C096D091008100A5AF82B0E431A43F6
:20C180000F100228085C096D091008100E103EB0001002243ED000204A5AF2234993023410
:20C1A0001B53033C0E6E086849693EB000800724086349630B633EB00060012018C31B931E
:20C1C0000F383B90FF000F3449598B1009DB075709100D490C483741384139413A41304172
:20C1E0000C430D43F83F3D40FFFE3C4307570D10F23F0B4D0E4B3BF0807F2D240B5B8B1097
:20C200007ED080003B807F0026303B900F0011241D340E110C101E930124FB3F1B83033044
:20C220000C5C0E6EFB3F0D9302343EE31E530C4E30418E108C104C4C0CDE3C900080012480
:20C24000053C0D9303343C40008030410D93FB333C40FF7F30410C433041F2F0DF00290076
:20C260007F408000F2F0DF0021000E4C4EFF4E930420F2F07F002100033CF2D080002100CD
:20C28000003C003C003C003C003CF2D020002100003C003C034312C34F104F93E323F2D0D3
:20C2A000200029003041F2F0DF002600F2F0DF004100F2F07F002600F2F07F004100F2F0D0
:20C2C000DF002E00F2F0DF004200F2D020002200F2D080002200F2D020002A00F2D02000F8
:20C2E0002100F2D080002100F2D02000290030410B4D0BEF0A300D9312300D9F02241934B1
:20C30000163C0C9E18241328143C3DB0807F04203FB0807F01200F240D9F0B34083C0F9D2D
:20C3200002240734043C0E9CEC270128023C3C4330411C4330410C4330410A1209123F4002
:20C3400062C53F9313243D4062C50D3C8F122A53133C2D533C4D0A4D0E49B01208C50A59AA
:20C360000D4A1D531DC3294D0993F3233F40FFFF3F9305243A40FFFF2F4A0F93E723304069
:20C3800034C5B0125AC20D123D401F001D83FE233D410C4DB0125AC20D123D401F001D833A
:20C3A000FE233D417C407F00B0125AC20D123D401F001D83FE233D413041B240805A20016D
:20C3C000B012DEC41C43B0121AC5B01244C53C40B80BB012C4C4B0124CC57C4028007D4031
:20C3E0005000B01282C33C400A00B012C4C4FB3F0E4C0D4C0D93162403343DE31D530F3049
:20C400003B408F001B830D5DFD2B4C4D8C108D104D4D8B100DDB0E5E0D100C1030413D4060
:20C4200000C70C43304131400004B24060C51402B24060C51602B01258C50C930224B0123E
:20C440003AC30C43B012BAC3B0125CC5E2D22A00E2D22E00E2C24200B2D010028001B240C1
:20C46000F4019201B240E0008401824394013041F2F0E7002A00F2D018002F00F2D018003C
:20C4800029000D123D4033821D83FE233D413041B2400240B201B240F010B001F2401100A5
:20C4A0004A00F240050049003041F2F0FC002E00F2F0FC004200F2D003002A00F2F0FC0048
:20C4C000290030410F430F9C09340D123D404B011D83FE233D411F530F9CF73B3041B012DF
:20C4E00090C4B012A6C2B012AAC4B0124CC4B01270C430410E4312C30C1001280E5D0D5D15
:20C500000C93F9230C4E30410F4C0E9305241F53FF4DFFFF1E83FB2330410C930320D2D31D
:20C520002900023CE2D3290030413441354136413741384139413A4130410D9302243DE0A9
:20C5400000803041B240FA009401304182439401304132D01000FD3F1C4330410343FF3F8B
:02C56000304168
:20C5620004000002000000000400040200000000040008020000000004000C020000000089
:14C5820002001002000002001202000001001C02000000005C
:02FFE40052C504
:02FFE60052C502
:02FFEA0052C5FE
:02FFEC0052C5FC
:02FFEE0052C5FA
:02FFF00052C5F8
:02FFF20052C5F6
:02FFF40052C5F4
:02FFF60052C5F2
:02FFF80052C5F0
:02FFFA0052C5EE
:02FFFC0052C5EC
:02FFFE0026C417
:00000001FF
